{
    "_format": "hh-sol-artifact-1",
    "contractName": "WavePortal",
    "sourceName": "contracts/WavePortal.sol",
    "abi": [
        {
            "inputs": [],
            "stateMutability": "payable",
            "type": "constructor"
        },
        {
            "anonymous": false,
            "inputs": [
                {
                    "indexed": false,
                    "internalType": "address",
                    "name": "indexed_from",
                    "type": "address"
                },
                {
                    "indexed": false,
                    "internalType": "uint256",
                    "name": "timestamp",
                    "type": "uint256"
                },
                {
                    "indexed": false,
                    "internalType": "string",
                    "name": "message",
                    "type": "string"
                }
            ],
            "name": "NewWave",
            "type": "event"
        },
        {
            "inputs": [],
            "name": "getAllWaves",
            "outputs": [
                {
                    "components": [
                        {
                            "internalType": "address",
                            "name": "waver",
                            "type": "address"
                        },
                        {
                            "internalType": "string",
                            "name": "message",
                            "type": "string"
                        },
                        {
                            "internalType": "uint256",
                            "name": "timestamp",
                            "type": "uint256"
                        }
                    ],
                    "internalType": "struct WavePortal.Wave[]",
                    "name": "",
                    "type": "tuple[]"
                }
            ],
            "stateMutability": "view",
            "type": "function"
        },
        {
            "inputs": [],
            "name": "getTotalNumberOfWaves",
            "outputs": [
                {
                    "internalType": "uint256",
                    "name": "",
                    "type": "uint256"
                }
            ],
            "stateMutability": "view",
            "type": "function"
        },
        {
            "inputs": [
                {
                    "internalType": "address",
                    "name": "",
                    "type": "address"
                }
            ],
            "name": "lastWavedAt",
            "outputs": [
                {
                    "internalType": "uint256",
                    "name": "",
                    "type": "uint256"
                }
            ],
            "stateMutability": "view",
            "type": "function"
        },
        {
            "inputs": [
                {
                    "internalType": "string",
                    "name": "message",
                    "type": "string"
                }
            ],
            "name": "wave",
            "outputs": [],
            "stateMutability": "nonpayable",
            "type": "function"
        },
        {
            "inputs": [
                {
                    "internalType": "uint256",
                    "name": "",
                    "type": "uint256"
                }
            ],
            "name": "waves",
            "outputs": [
                {
                    "internalType": "address",
                    "name": "waver",
                    "type": "address"
                },
                {
                    "internalType": "string",
                    "name": "message",
                    "type": "string"
                },
                {
                    "internalType": "uint256",
                    "name": "timestamp",
                    "type": "uint256"
                }
            ],
            "stateMutability": "view",
            "type": "function"
        }
    ],
    "bytecode": "0x60806040526200004f6040518060400160405280601f81526020017f5761766520706f7274616c20636f6e7374727563746f722072756e6e696e67008152506200007760201b620007521760201c565b606444426200005f9190620001c4565b6200006b919062000261565b60028190555062000308565b62000117816040516024016200008e919062000184565b6040516020818303038152906040527f41304fac000000000000000000000000000000000000000000000000000000007bffffffffffffffffffffffffffffffffffffffffffffffffffffffff19166020820180517bffffffffffffffffffffffffffffffffffffffffffffffffffffffff83818316178352505050506200011a60201b60201c565b50565b60008151905060006a636f6e736f6c652e6c6f679050602083016000808483855afa5050505050565b60006200015082620001a8565b6200015c8185620001b3565b93506200016e8185602086016200022b565b6200017981620002f7565b840191505092915050565b60006020820190508181036000830152620001a0818462000143565b905092915050565b600081519050919050565b600082825260208201905092915050565b6000620001d18262000221565b9150620001de8362000221565b9250827fffffffffffffffffffffffffffffffffffffffffffffffffffffffffffffffff0382111562000216576200021562000299565b5b828201905092915050565b6000819050919050565b60005b838110156200024b5780820151818401526020810190506200022e565b838111156200025b576000848401525b50505050565b60006200026e8262000221565b91506200027b8362000221565b9250826200028e576200028d620002c8565b5b828206905092915050565b7f4e487b7100000000000000000000000000000000000000000000000000000000600052601160045260246000fd5b7f4e487b7100000000000000000000000000000000000000000000000000000000600052601260045260246000fd5b6000601f19601f8301169050919050565b6112d180620003186000396000f3fe608060405234801561001057600080fd5b50600436106100575760003560e01c8063449d46c01461005c578063930903ab14610078578063a42a466314610096578063bd43a908146100c6578063c781267a146100e4575b600080fd5b61007660048036038101906100719190610aaa565b610116565b005b6100806104bc565b60405161008d9190610f7c565b60405180910390f35b6100b060048036038101906100ab9190610a81565b610507565b6040516100bd9190610f7c565b60405180910390f35b6100ce61051f565b6040516100db9190610e78565b60405180910390f35b6100fe60048036038101906100f99190610aeb565b610670565b60405161010d93929190610dfc565b60405180910390f35b42610384600360003373ffffffffffffffffffffffffffffffffffffffff1673ffffffffffffffffffffffffffffffffffffffff168152602001908152602001600020546101649190611069565b106101a4576040517f08c379a000000000000000000000000000000000000000000000000000000000815260040161019b90610f3c565b60405180910390fd5b42600360003373ffffffffffffffffffffffffffffffffffffffff1673ffffffffffffffffffffffffffffffffffffffff1681526020019081526020016000208190555060016000808282546101fa9190611069565b925050819055506102406040518060400160405280600d81526020017f2573206861732077617665642e00000000000000000000000000000000000000815250336107eb565b600160405180606001604052803373ffffffffffffffffffffffffffffffffffffffff16815260200183815260200142815250908060018154018082558091505060019003906000526020600020906003020160009091909190915060008201518160000160006101000a81548173ffffffffffffffffffffffffffffffffffffffff021916908373ffffffffffffffffffffffffffffffffffffffff16021790555060208201518160010190805190602001906102ff92919061094c565b506040820151816002015550506064600254424461031d9190611069565b6103279190611069565b610331919061116f565b6002819055506032600254111561047e576103816040518060400160405280600881526020017f257320776f6e2121000000000000000000000000000000000000000000000000815250336107eb565b6000655af3107a40009050478111156103cf576040517f08c379a00000000000000000000000000000000000000000000000000000000081526004016103c690610f1c565b60405180910390fd5b60003373ffffffffffffffffffffffffffffffffffffffff16826040516103f590610de7565b60006040518083038185875af1925050503d8060008114610432576040519150601f19603f3d011682016040523d82523d6000602084013e610437565b606091505b505090508061047b576040517f08c379a000000000000000000000000000000000000000000000000000000000815260040161047290610f5c565b60405180910390fd5b50505b7f5f7e16dc676677766a70e9c5628aa6c54ddb8b6e5188e2ae1e1f17f1ffbea7163342836040516104b193929190610e3a565b60405180910390a150565b60006104ff6040518060400160405280601e81526020017f576520686176652025642070656f706c652077617665642061742075732e0000815250600054610887565b600054905090565b60036020528060005260406000206000915090505481565b60606001805480602002602001604051908101604052809291908181526020016000905b8282101561066757838290600052602060002090600302016040518060600160405290816000820160009054906101000a900473ffffffffffffffffffffffffffffffffffffffff1673ffffffffffffffffffffffffffffffffffffffff1673ffffffffffffffffffffffffffffffffffffffff1681526020016001820180546105cc9061113d565b80601f01602080910402602001604051908101604052809291908181526020018280546105f89061113d565b80156106455780601f1061061a57610100808354040283529160200191610645565b820191906000526020600020905b81548152906001019060200180831161062857829003601f168201915b5050505050815260200160028201548152505081526020019060010190610543565b50505050905090565b6001818154811061068057600080fd5b90600052602060002090600302016000915090508060000160009054906101000a900473ffffffffffffffffffffffffffffffffffffffff16908060010180546106c99061113d565b80601f01602080910402602001604051908101604052809291908181526020018280546106f59061113d565b80156107425780601f1061071757610100808354040283529160200191610742565b820191906000526020600020905b81548152906001019060200180831161072557829003601f168201915b5050505050908060020154905083565b6107e8816040516024016107669190610e9a565b6040516020818303038152906040527f41304fac000000000000000000000000000000000000000000000000000000007bffffffffffffffffffffffffffffffffffffffffffffffffffffffff19166020820180517bffffffffffffffffffffffffffffffffffffffffffffffffffffffff8381831617835250505050610923565b50565b6108838282604051602401610801929190610ebc565b6040516020818303038152906040527f319af333000000000000000000000000000000000000000000000000000000007bffffffffffffffffffffffffffffffffffffffffffffffffffffffff19166020820180517bffffffffffffffffffffffffffffffffffffffffffffffffffffffff8381831617835250505050610923565b5050565b61091f828260405160240161089d929190610eec565b6040516020818303038152906040527f9710a9d0000000000000000000000000000000000000000000000000000000007bffffffffffffffffffffffffffffffffffffffffffffffffffffffff19166020820180517bffffffffffffffffffffffffffffffffffffffffffffffffffffffff8381831617835250505050610923565b5050565b60008151905060006a636f6e736f6c652e6c6f679050602083016000808483855afa5050505050565b8280546109589061113d565b90600052602060002090601f01602090048101928261097a57600085556109c1565b82601f1061099357805160ff19168380011785556109c1565b828001600101855582156109c1579182015b828111156109c05782518255916020019190600101906109a5565b5b5090506109ce91906109d2565b5090565b5b808211156109eb5760008160009055506001016109d3565b5090565b6000610a026109fd84610fc8565b610f97565b905082815260208101848484011115610a1a57600080fd5b610a258482856110fb565b509392505050565b600081359050610a3c8161126d565b92915050565b600082601f830112610a5357600080fd5b8135610a638482602086016109ef565b91505092915050565b600081359050610a7b81611284565b92915050565b600060208284031215610a9357600080fd5b6000610aa184828501610a2d565b91505092915050565b600060208284031215610abc57600080fd5b600082013567ffffffffffffffff811115610ad657600080fd5b610ae284828501610a42565b91505092915050565b600060208284031215610afd57600080fd5b6000610b0b84828501610a6c565b91505092915050565b6000610b208383610d79565b905092915050565b610b31816110bf565b82525050565b610b40816110bf565b82525050565b6000610b5182611008565b610b5b818561102b565b935083602082028501610b6d85610ff8565b8060005b85811015610ba95784840389528151610b8a8582610b14565b9450610b958361101e565b925060208a01995050600181019050610b71565b50829750879550505050505092915050565b6000610bc682611013565b610bd08185611047565b9350610be081856020860161110a565b610be98161125c565b840191505092915050565b6000610bff82611013565b610c098185611058565b9350610c1981856020860161110a565b610c228161125c565b840191505092915050565b6000610c3a604083611058565b91507f54686520736d61727420636f6e747261637420646f6573206e6f74206861766560008301527f20656e6f7567682062616c616e636520746f20726577617264207761766572736020830152604082019050919050565b6000610ca0602483611058565b91507f576169742031356d206265666f726520616e6f74686572207472616e7361637460008301527f696f6e2e000000000000000000000000000000000000000000000000000000006020830152604082019050919050565b6000610d06602683611058565b91507f4661696c656420746f207769746864726177206d6f6e65792066726f6d20636f60008301527f6e747261637400000000000000000000000000000000000000000000000000006020830152604082019050919050565b6000610d6c60008361103c565b9150600082019050919050565b6000606083016000830151610d916000860182610b28565b5060208301518482036020860152610da98282610bbb565b9150506040830151610dbe6040860182610dc9565b508091505092915050565b610dd2816110f1565b82525050565b610de1816110f1565b82525050565b6000610df282610d5f565b9150819050919050565b6000606082019050610e116000830186610b37565b8181036020830152610e238185610bf4565b9050610e326040830184610dd8565b949350505050565b6000606082019050610e4f6000830186610b37565b610e5c6020830185610dd8565b8181036040830152610e6e8184610bf4565b9050949350505050565b60006020820190508181036000830152610e928184610b46565b905092915050565b60006020820190508181036000830152610eb48184610bf4565b905092915050565b60006040820190508181036000830152610ed68185610bf4565b9050610ee56020830184610b37565b9392505050565b60006040820190508181036000830152610f068185610bf4565b9050610f156020830184610dd8565b9392505050565b60006020820190508181036000830152610f3581610c2d565b9050919050565b60006020820190508181036000830152610f5581610c93565b9050919050565b60006020820190508181036000830152610f7581610cf9565b9050919050565b6000602082019050610f916000830184610dd8565b92915050565b6000604051905081810181811067ffffffffffffffff82111715610fbe57610fbd61122d565b5b8060405250919050565b600067ffffffffffffffff821115610fe357610fe261122d565b5b601f19601f8301169050602081019050919050565b6000819050602082019050919050565b600081519050919050565b600081519050919050565b6000602082019050919050565b600082825260208201905092915050565b600081905092915050565b600082825260208201905092915050565b600082825260208201905092915050565b6000611074826110f1565b915061107f836110f1565b9250827fffffffffffffffffffffffffffffffffffffffffffffffffffffffffffffffff038211156110b4576110b36111a0565b5b828201905092915050565b60006110ca826110d1565b9050919050565b600073ffffffffffffffffffffffffffffffffffffffff82169050919050565b6000819050919050565b82818337600083830152505050565b60005b8381101561112857808201518184015260208101905061110d565b83811115611137576000848401525b50505050565b6000600282049050600182168061115557607f821691505b60208210811415611169576111686111fe565b5b50919050565b600061117a826110f1565b9150611185836110f1565b925082611195576111946111cf565b5b828206905092915050565b7f4e487b7100000000000000000000000000000000000000000000000000000000600052601160045260246000fd5b7f4e487b7100000000000000000000000000000000000000000000000000000000600052601260045260246000fd5b7f4e487b7100000000000000000000000000000000000000000000000000000000600052602260045260246000fd5b7f4e487b7100000000000000000000000000000000000000000000000000000000600052604160045260246000fd5b6000601f19601f8301169050919050565b611276816110bf565b811461128157600080fd5b50565b61128d816110f1565b811461129857600080fd5b5056fea2646970667358221220ba8340a0c20ed11b78dfe95c4201c8a1fd486f5778e3eeab6a406c141673d82e64736f6c63430008000033",
    "linkReferences": {},
    "deployedLinkReferences": {}
}